:020000040800F2
:10000000486600209D010008B71F00082F1C00084B
:10001000B51F0008A90200088F2F0008000000008B
:10002000000000000000000000000000252400087F
:10003000A90600080000000085210008F525000839
:10004000B7010008B7010008B7010008B7010008B0
:10005000B7010008B7010008B7010008B7010008A0
:10006000B7010008B7010008B7010008B701000890
:10007000B7010008B7010008B7010008B701000880
:10008000B7010008B7010008B7010008B701000870
:10009000B7010008B7010008B7010008B701000860
:1000A000B7010008B7010008B7010008B701000850
:1000B000B7010008D1260008B7010008B701000801
:1000C000B7010008B7010008B7010008CD210008FA
:1000D000B7010008B7010008B7010008B701000820
:1000E000B7010008B7010008B7010008B701000810
:1000F000B7010008B7010008B7010008B701000800
:10010000B7010008B7010008B7010008B7010008EF
:10011000B7010008B7010008B7010008B7010008DF
:10012000B7010008B7010008B7010008B7010008CF
:10013000B70100080000000000000000B70100083F
:10014000B7010008B7010008B7010008B7010008AF
:10015000B7010008B7010008B7010008B70100089F
:10016000B7010008B7010008B7010008B70100088F
:10017000B7010008B70100080000000000000000FF
:10018000B7010008B7010008DFF80CD000F07AF8DA
:1001900000480047053000084866002006488047B0
:1001A00006480047FEE7FEE7FEE7FEE7FEE7FEE75C
:1001B000FEE7FEE7FEE7FEE77D260008890100086E
:1001C0002DE9F05F0546002092469B46884606468C
:1001D000814640241BE0284641464746224600F01F
:1001E00041F853465A46C01A914110D31146184659
:1001F000224600F028F82D1A67EB01084F462246E8
:100200000120002100F01FF817EB00094E41201ECD
:10021000A4F10104DFDC484631462A464346BDE8E6
:10022000F09FD2B201E000F8012B491EFBD27047CB
:100230000022F6E710B513460A4604461946FFF7B2
:10024000F0FF204610BD202A04DB203A00FA02F11C
:10025000002070479140C2F1200320FA03F31943B4
:1002600090407047202A04DB203A21FA02F0002156
:10027000704721FA02F3D040C2F1200291400843B6
:1002800019467047064C074D06E0E06840F0010350
:1002900094E8070098471034AC42F6D3FFF778FF94
:1002A0000C3400082C340008FEE7000010B50F4A9B
:1002B00000214FF4806400BF50F8313000EE103A56
:1002C00000EBC103F8EEC00A5B6800EE103A02EBE7
:1002D000810303F50053B8EEC00A491CA14280EE29
:1002E000801A83ED071AE7DB10BD00003C000020F8
:1002F0000168406800EE101AF8EEC00A00EE100A1D
:100300000348B8EEC00A80EE801A80ED071A7047E5
:100310003C2000202DE9F14F00262DED028B82B00C
:1003200007463546B146B046B3469FED760A764C51
:10033000032084ED040A02F0ADFF04F11C013846ED
:10034000009101F0A3FE0490FFF7B0FF6F4F002073
:100350004FF4806304EB800101F5005191ED070A31
:1003600010EE102ABA4202DD08F101080AE091ED10
:10037000070A674A10EE101A914202DA09F10109E0
:1003800000E06D1C401C9842E4DBC14502DD9FED9E
:10039000618A01E09FED608ADFF880814FF081493A
:1003A0009A46012037E000BF30EE080A032084EDB2
:1003B000040A02F06FFF0099049801F067FE0490B0
:1003C000FFF774FF29460025514B284604EB8002B5
:1003D00002F5005292ED070A10EE10CABC4506DC89
:1003E00092ED070A10EE102A9A4200DB6D1C401CA9
:1003F0005045EBDB681A07D5C82905DD4FF0010B26
:10040000049802F047F805E0049802F043F8BBF1C5
:10041000000FC6D0002094ED040A10EE101A4145DA
:1004200001D2012100E0002194ED040A084010EE01
:10043000101A494501DA012100E0002194ED040A77
:100440000842B1D130EE480A032084ED040A02F0DC
:1004500021FFDFF8CC804FF4006940F2FF7B574664
:100460000099049801F012FE0490FFF71FFF002589
:100470004FEA050204EB820101F5005090ED070AF6
:1004800010EE103A434507DB90ED070ADFF894C001
:1004900010EE103A634506DDCB69002B03DDD1F881
:1004A0001CC0DC4500DB6D1C90ED070A00F0ECF889
:1004B000CB691844C861C869484501DB584603E068
:1004C000C869002801DA0020C861521CBA42D1DB99
:1004D000761C049801F0DEFFBD4201DA192EBFDB65
:1004E000049802F03BF8002004EB8001CA6901F592
:1004F0008051CA61401CB842F6DB02B0BDEC028BF1
:10050000BDE8F88F000000003C0000209A99593F98
:100510009A99193ECDCCCCBDCDCCCC3D000080C04D
:100520008FC2F53EB81E053F2DE9F14F284D41F22F
:100530001C00284E002405EB000B4FF4006940F22C
:10054000FF7A4FF480675946009801F09FFD0090B4
:10055000FFF7ACFE00231A4605EB820101F50050BF
:1005600090ED070A10EE10CAB44507DB90ED070ABC
:10057000DFF8648010EE10CAC4450ADD01F5805C26
:10058000DCF81C80B8F1000F03DDDCF81C80D045DE
:1005900000DB5B1C90ED070A00F076F801F5805156
:1005A000D1F81CC06044C861C869484501DB5046A9
:1005B00003E0C869002801DA0020C861521CBA4271
:1005C000CADB641CBB4201DA192CBCDBBDE8F88F26
:1005D0003C0000208FC2F53EB81E053F2DE9F14FCB
:1005E000264C41F21C00002704EB000BDFF8908042
:1005F00004F500553E464FF4006A40F2FF7904F5D9
:10060000805410225B461146009801F08DFD009049
:10061000FFF76EFE95ED070A10EE100A404506DB67
:1006200095ED070A174910EE100A884207DDD4F845
:100630005C08002803DDD4F85C18494500DB01277D
:1006400095ED070A00F020F8D4F85C180844C4F8C7
:100650005C08D4F85C08504501DB484604E0D4F857
:100660005C08002802DA0020C4F85C08761C002F21
:1006700001D10A2EC5DBBDE8F88F00003C00002048
:100680008FC2F53EB81E053FF6EE000A30EEC00AF6
:10069000DFED040A20EE200ABDEEC00A10EE100ABB
:1006A0007047000000002F437047000031B5084D2F
:1006B0006C6800F067FB0749B0FBF1F00099484314
:1006C000009068680099001B8842FAD338BD00008A
:1006D000001000E040420F0010B501F067FF09482C
:1006E00001210174017C0029FCD14168C1600168CD
:1006F000816000214160016081744174BDE8104057
:1007000001F066BF5830002038B59FED0E0A6946EB
:100710008DED000A04230A460B4800F0DFFE0B4C67
:1007200001220821204600F0C4F909490878002870
:10073000FCD00020087002460821204600F0B9F9DC
:1007400038BD0000000048C2A46000200000024044
:100750000000002070B54379012B1AD001264671A4
:100760000223037105682C6840F6FE7393409C4396
:10077000D1E900310B43934023432B6001680B68A0
:10078000C0249440A3430B600671002141710846C8
:1007900070BD022070BD70B5040003D02079002523
:1007A00010B105E0012070BD6571204600F008F829
:1007B00002202071256101202071002070BD000001
:1007C00010B586B0044614216846FFF731FD114983
:1007D000206888421CD110480021026842F0005273
:1007E0000260006800F0005005900B481038026865
:1007F00042F001020260006800F001000590102044
:1008000000900320CDE901016946044800F074F826
:1008100006B010BD007400404038024000000240A5
:1008200018B5046800940068104421B11430009099
:100830000360002018BD0830F9E730B54279012A7D
:1008400016D0012242710223037103681D6802FA67
:1008500001F425431D60002901680B680AD00C686B
:1008600003F4802304F46014B3F5802F0FD015E057
:10087000022030BD0C6803F0040304F03804042B9C
:100880000CD1382C0AD14B6843F0010305E0B4F5D4
:10089000601F03D14B6843F002034B6002710021DB
:1008A0004171084630BD90F83510022903D08021EF
:1008B000416501207047052180F835100068016806
:1008C00021F001010160002070470000EFF3058175
:1008D00041B14FF0E02100280AD00A69D203FAD5CD
:1008E000401EF8E7034A516853685B1A8342FBD302
:1008F00070470000240000202DE9F84FDFF87CB19C
:1009000000224FF001084FF0030A4FF00F090BF1DE
:10091000040E00BF0B6808FA02F42340A3426ED114
:100920004D68022D01D0122D0ED1D50800EB850C9B
:10093000DCF820505607F70E09FA07F6B5430E69A2
:10094000BE402E43CCF82060066855000F790AFAA5
:1009500005FC07F0030726EA0C06AF4037430760A3
:100960004E68012E05D0022E03D0112E01D0122E7A
:100970000ED18668CF6826EA0C06AF403743876001
:100980004668A6430C79C4F3001494403443446091
:10099000C6688C6826EA0C06AC403443C4604C68D8
:1009A000E40065D5364C256845F48045256024680B
:1009B00022F0030504F480440094324C2E19D6F83A
:1009C000084895072F0F09FA07F5AC432E4DA842AA
:1009D00001D1002524E02D4DA84201D101251FE0C1
:1009E0002B4DA84201D102251AE02A4DA84201D17F
:1009F000032515E0284DA84202D1042510E037E078
:100A0000264DA84201D105250AE0254DA84201D175
:100A1000062505E0234DA84201D1072500E0082561
:100A2000BD402543C6F80858DBF800405D464E68D7
:100A30009C43F60300D51C432C60DEF8004075464D
:100A40004E689C43B60300D51C432C600B4D083503
:100A50002C684E689C43F60200D51C432C60074D61
:100A60000C352C684E689C43B60200D51C432C60A4
:100A7000521C102AFFF44EAFBDE8F88F003C014035
:100A800044380240003001400000024000040240AF
:100A900000080240000C0240001002400014024016
:100AA00000180240001C02400069084000D00120EC
:100AB00070470AB1816170470904FBE7014840684B
:100AC000704700002400002070B517484168491C99
:100AD0004160016811B10168491E01600024134E94
:100AE0001CE000BF06EB84056968A9B1087880079F
:100AF00012D5886810B1401E88600DD16868D0E9B1
:100B00000321904768684168816069680878C20776
:100B100002D120F002000870641CE4B23078A042D8
:100B2000E0D801F020FF70BD2400002014620020F6
:100B30000B4810B5016841F400710160016841F48F
:100B400080610160016841F480710160032000F060
:100B50006FF8002000F006F800F024F8002010BD27
:100B6000003C024070B50D4D04464FF47A71287870
:100B7000B1FBF0F00A490968B1FBF0F000F00AFDA2
:100B800048B9102C07D200222146501E00F030F840
:100B900000206C6070BD012070BD00002C000020A2
:100BA000380000200A4808B5016841F4804101601E
:100BB000006800F4804000900548001F016841F083
:100BC00080510160006800F08050009008BD000076
:100BD00044380240002809DB00F01F020121914047
:100BE0004009800000F1E020C0F8001170470000CB
:100BF000F0B40E4B1B680C46C3F30223C3F1070588
:100C0000042D00D90425191D072901D2002300E075
:100C1000DB1E012606FA05F1491E214099409E403F
:100C2000761E16403143F0BC02F0C6B90CED00E070
:100C3000064900F0070208684FF6FF03184040EA33
:100C40000220034A10430860704700000CED00E0EA
:100C50000000FA052DE9F0470E46050065D0DFF8E3
:100C60001481D8F80000F7B200F00F00B04207D2AC
:100C700088F80070D8F8000000F00F00B04254D19E
:100C800028683D4C810712D5400703D5206840F401
:100C9000E05020602878000703D5206840F46040C9
:100CA00020602068A96820F0F000084320602878C0
:100CB000C0072DD0304968680839012812D00228B1
:100CC00013D0032811D00968890700292DDA21687B
:100CD00021F0030101432160FFF7F0FE814641F25C
:100CE000883A0EE009688903EFE709688901ECE7B3
:100CF000FFF7E4FEA0EB0901514502D90320BDE84E
:100D0000F0872068696800F00C00B0EB810FEFD12C
:100D1000D8F80010404601F00F01B14207D9077022
:100D2000006800F00F00B04201D00120E7E728780A
:100D3000400705D52068E96820F4E05008432060AA
:100D40002878000706D52068296920F4604040EA29
:100D5000C100206000F01CF82168084AC1F30311AB
:100D6000515CC840064908600020FFF7FBFE0020E8
:100D7000C5E70000003C024008380240FC33000890
:100D8000380000200148006870470000380000204B
:100D9000154810B5006810F00C02144813D014491F
:100DA000042A0FD0082A0ED10F4C241F2268236872
:100DB00002F03F025B0207D52068C0F38810A0FB59
:100DC000010106E0084610BD2168C1F38811A1FBAE
:100DD00000010023FFF7F4F92168C1F30141491C28
:100DE0004900B0FBF1F010BD083802400024F400C7
:100DF00040787D012DE9F84F050076D02878DFF89E
:100E0000F8B2BE4CC00749D0DBF800105846C1F319
:100E10008101012908D00068C0F3810002280AD1AD
:100E2000201D0068400206D52068800336D568681A
:100E30000028E2D032E06868B0F5803F10D0B0F50D
:100E4000A02F206810D020F480302060206820F48B
:100E5000802020606868A0B1FFF730FE06460CE0F5
:100E6000206840F48030F4E740F480202060F7E709
:100E7000FFF724FE801B642873D820688003F7D511
:100E80000CE0FFF71BFE064605E000BFFFF716FE6D
:100E9000801B6428F0D820688003F7D42878DFF816
:100EA000608280074FF000093ED5DBF800105846FD
:100EB00011F00C0F09D00068C0F3810002280BD19B
:100EC0008D48001F0068400206D42068800715D5B1
:100ED000E868012809D111E0E868B8B10120C8F834
:100EE0000000FFF7EBFD064605E002E1FFF7E6FD37
:100EF000801B0228C0D820688007F7D520682969A0
:100F000020F0F80040EAC10020600DE0C8F8009031
:100F1000FFF7D4FD064604E0FFF7D0FD801B022852
:100F20001FD820688007F7D42878000722D5724E92
:100F3000744869696C3671B101210160FFF7BEFD2B
:100F4000074604E0FFF7BAFDC01B022809D8306845
:100F50008007F7D50EE0C0F80090FFF7AFFD074619
:100F600005E083E0FFF7AAFDC01B02287ED83068A9
:100F70008007F7D42878400768D5DFF87CA10027E0
:100F80000AF1380ADAF80000C0000BD4DAF80010D1
:100F900041F08051CAF80010DAF80000012700F093
:100FA00080500090584E3068C00510D4306840F42E
:100FB00080703060FFF782FD009005E0FFF77EFD56
:100FC0000099401A022851D83068C005F6D54A4E1B
:100FD000A868683601280FD00528306810D020F0A6
:100FE00001003060306820F004003060A868B8B1BB
:100FF000FFF764FD00900FE0306840F00100F4E777
:1010000040F004003060F7E7FFF758FD0099411AFF
:1010100041F28830814264D830688007F4D50EE010
:10102000FFF74CFD009007E0FFF748FD0099411ADB
:1010300041F28830814254D830688007F4D42FB10F
:10104000DAF8001021F08051CAF80010A869C0B386
:10105000DBF80010C1F3810102294AD0022848467A
:1010600007D0C8F86000FFF729FD00E039E0054629
:101070003AE04746C8F86000FFF720FD064604E066
:10108000FFF71CFD801B02282BD820688001F7D4B5
:10109000D5E907010843A96A1C4A490802EB014146
:1010A0006A6A41EA8211084395F82C1040EA01610E
:1010B0001148001F016001203866FFF7FFFC05465C
:1010C00005E014E0FFF7FAFC401B022809D820686D
:1010D0008001F7D50BE000BFFFF7F0FC401B0228B2
:1010E00002D90320BDE8F88F20688001F4D40020E5
:1010F000F8E70120F6E70000083802400038024017
:1011000000004742800E4742007000400000FFFF91
:101110007047000038B5016804464A688868C043D3
:10112000430606D5C30704D1D3435B0601D4216C23
:1011300005E0830708D4D3431B0605D4616C01B0D6
:101140002046BDE830400847830603D5430601D555
:10115000C30551D4D3439B064ED443060AD494F816
:101160005130032B49D0636D43F004036365CB68B2
:101170008B680093830609D4636D43F001036365B4
:101180008B6800930B6823F040030B60C00506D406
:10119000606D40F008006065206880680090606DB8
:1011A000002829D02068416821F0E0014160012039
:1011B00084F85100900701D4D00722D020684168FC
:1011C00021F003014160114DE06C40B10565E06C18
:1011D000FFF769FB18B1606D40F040006065A06CDE
:1011E000002809D00565A06CFFF75DFB002803D03F
:1011F000606D40F04000606538BDC8688868009048
:1012000038BD2046FFF784FF38BD000029230008C1
:1012100070B5040005D00025A56294F8510010B106
:1012200006E0012070BD84F85050204600F030F8F0
:10123000022084F851002068016821F0400101601B
:10124000D4E901010843D4E9031211430843616959
:101250000843218B01F400710843E1690843216AC6
:101260000843A16A084321680860A069042101EAD3
:101270001040616A0843216848602068C16921F410
:101280000061C1616565012084F85100002070BDD6
:10129000F0B587B0044614216846FEF7C9FF314A0D
:1012A000216800243048022503260527914226D1D3
:1012B0002D4914310A6842F480520A60096801F429
:1012C00080510591016841F001010160006802AAA6
:1012D00000F00100059048F2E000CDE9000582E849
:1012E000D00069462148FFF707FB00221146232062
:1012F000FFF77EFC2320FFF76DFC07B0F0BD1C4A12
:101300009142FAD1184910310A6842F480420A60C9
:10131000096801F480410591016841F00401016010
:10132000016801F004010591016841F002010160CA
:10133000006802AA00F0020005900C20CDE900052B
:1013400082E8D00069460B48FFF7D6FA4FF4806078
:10135000CDE9000502AA694682E8D0000648FFF7F9
:10136000CBFACAE7003001403038024000000240AA
:1013700000380040000802400004024070472DE998
:10138000F84F044690F8500000271D46164689463F
:1013900001280DD04FF0010B84F850B0FFF78EFB01
:1013A000804694F85100BA46012804D002278EE006
:1013B0000220BDE8F88FB9F1000F7DD0002E7BD060
:1013C000032084F85100C4F854A0C4F83090A686D5
:1013D000E686C4F838A0A4F83CA0A4F83EA0C4F85F
:1013E00044A0C4F840A0A068B0F5004F04D1206824
:1013F000016841F48041016020680168490603D416
:10140000016841F040010160E068B0F5006F60687C
:1014100003D030B3012E24D040E008B1012E1CD1FE
:10142000206B21680088C86006E020688168890711
:1014300009D5216B0988C160206B801C2063E08E78
:10144000401EE08609E0FFF739FBA0EB0800A84248
:1014500002D3681C01D031E07DB3E08E0028E4D1D6
:101460001FE0206B21680078087306E0206881681F
:10147000890709D5216B09780173206B401C206313
:10148000E08E401EE08609E0FFF718FBA0EB0800A5
:10149000A84202D3681C01D010E075B1E08E00288C
:1014A000E4D142462946204600F046FF08B12020FC
:1014B0006065A06820B107E008E0FFE7032706E0C9
:1014C0002068C16880680090606D00B1012784F8D1
:1014D00051B084F850A038466BE70000F0B590F8A2
:1014E00050500024012D0CD0012580F8505090F868
:1014F000515000264768012D0BD0B7F5827F06D1E9
:1015000001E00220F0BD87680FB9042D01D002244C
:1015100029E0A9B1A2B19BB190F85150042D02D09D
:10152000052580F85150466501638386C386826332
:101530008387C387C16829B10D4901640D4904E05F
:10154000012410E00C4901640C49416401684A68B7
:1015500042F0E0024A6001680A68520603D40A6851
:1015600042F040020A6080F850602046F0BD000062
:10157000D921000839220008092200086922000840
:101580000348012101704168491C41607047000017
:101590000000002010B5401EB0F1807F01D3012073
:1015A00010BD4FF0E02460610F21601701F004FDD1
:1015B0000020A06107202061002010BD7047704707
:1015C00070B590F83C20012A19D0012400F83C4F56
:1015D0000222427050F83C3C5A689D6822F0700626
:1015E0000A684968324325F0800529435A6050F85B
:1015F0003C2C9160447000210170084670BD0220AF
:1016000070BD10B5040003D094F83D0010B107E0A0
:10161000012010BD002084F83C00204600F00CF8AA
:10162000022084F83D00211D206801F057F80120B8
:1016300084F83D00002010BDF0B587B004461421A9
:101640006846FEF7F5FD294B266800242749103B24
:10165000022201252648B6F1804F14D0254FBE4204
:1016600027D1086840F0020008600868002200F0F6
:101670000200059011461D20FFF7BAFA1D20FFF762
:10168000A9FA07B0F0BD0E6846F001060E600968C1
:1016900001F001010591196841F001011960196813
:1016A0000092CDE9012401F00101CDE90451039438
:1016B00017E0114FBE42E4D10E6846F008060E60F6
:1016C000096801F008010591196841F001011960EC
:1016D00019680095CDE9012401F00101CDE904214B
:1016E00003946946FFF708F9CBE700004038024051
:1016F0000000024000040040000C00400168CA687D
:1017000042F00102CA600068816801F00701062901
:1017100003D0016841F001010160002070470168B9
:10172000CA6822F00102CA600068016A41F211121F
:10173000114207D1016A9210114203D1016821F0D0
:10174000010101600020704770B5044690F83C002C
:10175000012817D0012584F83C50022084F83D0070
:101760002068826822F0770222F47F428260086853
:10177000502830D00DDC20284DD005DC98B310283F
:101780003BD148E0022070BD302844D0402834D1FD
:1017900039E0602828D0702806D0B0F5805F2CD0C2
:1017A000B0F5005F29D10AE0CB68D1E901212068BA
:1017B00001F005F82068816841F0770109E0CB6805
:1017C000D1E90121206800F0FAFF2068816841F426
:1017D0008041816011E0CA684968206801F044F8DE
:1017E0005021206807E016E0CA684968206801F0C7
:1017F0008DF86021206800F0ECFF84F83D50002057
:1018000084F83C0070BDCA684968206801F02CF873
:1018100040212068EFE7226801461046EBE7704759
:101820002DE9F041044690F83C000D4601283DD0DA
:10183000012684F83C60022084F83D00AAB3042A03
:1018400046D02068082A55D0D5E90027E968036A00
:1018500023F480530362D0F81CC0036A2CF4407C4C
:101860004CEA07274FF6FF7C27F470470CEA01315A
:1018700039434FF4204723F4204307EA02321A4346
:10188000C16102622068C16921F44061C1612068C0
:10189000C169AA6841EA0221C0F81C1084F83D60C1
:1018A000002084F83C00BDE8F08101E00220FAE766
:1018B000D5E90012EB68206800F0E8FF2068816934
:1018C00021F00C01816120688169AA6811430FE051
:1018D000D5E90012EB68206801F02AF820688169D8
:1018E00021F44061816120688169AA6841EA02218E
:1018F0008161D3E7D5E9002C2F7B016A21F4807147
:101900000162C169036A21F0030141EA0C0121F07F
:10191000F00C39074FF420674CEA116123F420637F
:1019200007EA02221A43C16102622068C16921F0FC
:101930000C01C1612068C169AA681143ACE710B508
:10194000040003D094F83D0010B107E0012010BD61
:10195000002084F83C00204600F00CF8022084F8B7
:101960003D00211D206800F0B9FE012084F83D00F3
:10197000002010BD704710B504460068012200F039
:1019800011FF2068816801F00701062903D0016872
:1019900041F001010160002010BD10B5044600684F
:1019A000002200F0FFFE2068016A41F2111211428C
:1019B00007D1016A9210114203D1016821F001019F
:1019C0000160002010BD70B50446006801694FF049
:1019D0000005C943890715D4C168C943890711D4D3
:1019E000E91E016101202077206880698007204678
:1019F00002D0FFF714FF04E000F098F8204600F052
:101A000096F8257720680169C943490717D4C1684A
:101A1000C943490713D46FF0040101610220207704
:101A20002068806910F4407F204602D0FFF7F7FE5F
:101A300004E000F07BF8204600F079F82577206874
:101A40000169C943090716D4C168C943090712D4FB
:101A50006FF008010161042020772068C0698007C9
:101A6000204602D0FFF7DBFE04E000F05FF82046DE
:101A700000F05DF8257720680169C943C90617D4CD
:101A8000C168C943C90613D46FF010010161082071
:101A900020772068C06910F4407F204602D0FFF70D
:101AA000BEFE04E000F042F8204600F040F8257742
:101AB00020680169C943C90708D1C168C943C9077A
:101AC00004D1891E0161204600F032F820680169C6
:101AD000C943090609D4C168C943090605D46FF092
:101AE000800101612046FFF769FD20680169C94353
:101AF000490609D4C168C943490605D46FF04001BD
:101B00000161204600F092F820680169C943890606
:101B10000BD4C168C943890607D46FF02001016165
:101B20002046BDE87040FFF74ABD70BD7047704762
:101B300070B51A4C207C002819D00021184800F0FC
:101B400035F860600421164800F030F820606068C5
:101B5000E168002588420ED02068A16888420AD03A
:101B6000607C28B160682168884200D8257470BD07
:101B70000120607470BDA07C401CA074A07C14285F
:101B8000F8D90848206002210748FEF78DFF012898
:101B900001D06560EAE720686060E7E75830002020
:101BA000546100202048010000000240024600204D
:101BB00041B1042909D008290AD00C2901D11068A3
:101BC000006C70471068406B70471068806B7047FE
:101BD0001068C06B704770B5044690F83C0001284F
:101BE00012D0012584F83C50022084F83D002046A4
:101BF00000F0F7FD01004FF0000007D084F83D50E1
:101C000084F83C00012070BD022070BD2168CA68C4
:101C100022F04002CA602168CA6822F48042CA6089
:101C200084F83D5084F83C00002070BD7047FEE70A
:101C300030B516482021017041709FED150ADFED87
:101C4000150A80ED010AC0ED020ADFED130A134CFC
:101C5000C0ED030A80ED040A002180ED050A0B4661
:101C60004FF48062C4F8081000EB8305EA615B1C46
:101C70009342F9DBC4F8081000EB810303F58053AD
:101C8000DA61491C9142F7DBA16030BD3C000020C5
:101C90000000000096438B3E9A99993E0000002078
:101CA00010B502220849094800F0F3FF074800F088
:101CB000DDFF064C28B104F11401204600F0E0FFDE
:101CC000012084F8200010BD000802406C30002084
:101CD00010B504460648B0EE060A80ED050A042059
:101CE00001F0D8FA2046BDE8104000F037BC0000F3
:101CF0003C0000202DE9F04786B014216846FEF72D
:101D000097FA2B480024016841F004010160016842
:101D100001F004010591016841F0010101600168D1
:101D200001F001010591016841F0020101600068C4
:101D3000DFF8808000F00200059000220821404674
:101D4000FEF7B7FEDFF870904FF4E07601223146DF
:101D50004846FEF7AEFE012231014046FEF7A9FEDD
:101D6000DFF858A04FF48077002239465046FEF73E
:101D7000A0FE41F6084000900125CDE901546946D6
:101D800040460394FEF7B8FD0096CDE9015469463C
:101D900048460394FEF7B0FD0097CDE9015469462B
:101DA00050460394FEF7A8FD06B0BDE8F08700009A
:101DB00030380240000002400008024000040240A7
:101DC000094808490160002141608160C1600161EA
:101DD000416181610162416281620A21C162FFF752
:101DE00017BA000000300140A46000200B480A49E7
:101DF000012201604FF48271416000218160C16065
:101E0000C0E904125202C0E9062101624162816206
:101E10000A21C162FFF7FCB900380040FC600020D5
:101E200010B590B0002409940A940B94142104A8CE
:101E30000C94FEF7FDF92148039400940194029458
:101E40000D944FF080410E94C0E90014611EC0E96A
:101E5000024104618461FFF7D4FB4FF48050099084
:101E600009A91648FFF770FC1448FFF768FD042025
:101E700004906020CDE90504079404A90F48089454
:101E8000FFF7A9FE02200090CDE901040022694677
:101E90000A480394FFF7C4FC0120CDE90040042266
:101EA00069460648FFF7BCFC2020CDE90D040DA9CA
:101EB0000248FFF785FB10B010BD00005461002000
:101EC00010B586B000241248009401940294039443
:101ED00004940E49059401600121C0E9011441F206
:101EE0006801C0E903148461FFF78BFB4FF4805055
:101EF000009069460648FFF727FC049404A90448AB
:101F00000594FFF75DFB06B010BD00000004004023
:101F10009461002010B590B0002409940A940B94A9
:101F2000142104A80C94FEF783F92148039400942B
:101F3000019402940D941D490E94C0E90014611E91
:101F4000C0E9024104618461FFF75BFB4FF48050FC
:101F5000099009A91648FFF7F7FB1548FFF7EFFCB2
:101F6000042004905020CDE90504079404A91048EA
:101F70000894FFF730FE0120CDE9004002940022D2
:101F800069460B480394FFF74BFC02200090019038
:101F9000042269460648FFF743FC2020CDE90D04E2
:101FA0000DA90348FFF70CFB10B010BD000C00405A
:101FB000D4610020FEE7704710B5034900F066F8D1
:101FC000BDE8104000F066BA5800002010B5044685
:101FD000FEF7AAFA0349204600F058F8BDE8104081
:101FE00000F022BA5810002010B50446FEF7F6FAA9
:101FF0001022044B1146204600F096F8BDE8104030
:1020000000F06ABA5810002010B5002400F0BCF8A7
:1020100000F082FA641C642CF8DBFEF75DFBBDE87F
:102020001040FEF771BB00002DE9F041154CBFEEEA
:10203000080A2DED028B074684ED040A9FED128AF3
:102040004FF07F5604F11C0512E0032001F022F945
:102050002946384600F01AF8294600F017F80746D6
:1020600000F018FA94ED040A30EE080A84ED040A30
:1020700094ED040A10EE100AB042E6DBBDEC028BD0
:10208000BDE8F0813C000020CDCCCC3C2DE9FC5FCC
:102090008B46804600F08AFA0026B1461F4CDFF8D6
:1020A00080A032E000252BE005EB4617CDF800902C
:1020B000CDF804905BF82730F2B2E9B2012001F0CC
:1020C00097F800211748FFF771FDE06004211548DB
:1020D000FFF76CFDA06001202074207C0028FCD15B
:1020E000616848F83710216808EBC7004160C4F800
:1020F0000490C4F8009084F8129084F811906D1C3C
:102100009AF80000A842CFDC761C9AF80110B14280
:10211000C8DC00F05DFA4046BDE8FC9F5830002066
:102120003C000020546100202DE9FC4198461646F1
:102130000F46054600F03AFA002407EB46110094DA
:10214000019458F82130F2B2F9B2012001F050F8B0
:102150000B4901200874087C0028FCD148682860DD
:10216000086868604868C860086888604C600C60EF
:102170008C744C7400F02CFA2846BDE8FC810000F9
:10218000583000207047000010B50F4C94F8200024
:1021900028B9FFF785FD94F82000002812D00A49DD
:1021A000094814310C4600F091FC074800F0FAFB96
:1021B0000028FAD0044A2146BDE810401C320248EB
:1021C00000F0FABB10BD00006C3000200148FEF7A3
:1021D000A1BF0000A46000200168C968826B118063
:1021E000816B891C8163C18F491EC187C18F002902
:1021F00009D101684A6822F040024A60C18E002974
:1022000001D100F049B870470168097B826B1170F9
:10221000816B491C8163C18F491EC187C18F002911
:1022200009D101684A6822F060024A60C18E002923
:1022300001D100F031B87047016B02680988D160A4
:10224000016B891C0163C18E491EC186C18E0029A4
:1022500009D101684A6822F080024A60C18F0029D2
:1022600001D100F019B87047016B02680978117349
:10227000016B491C0163C18E491EC186C18E0029B4
:1022800009D101684A6822F080024A60C18F0029A2
:1022900001D100F001B8704738B50446214845F631
:1022A000C0510068B0FBF1F0642148430090FEF794
:1022B00005FC02462068416821F020014160009839
:1022C00088B1401E0090206880688007F7D564219F
:1022D000204600F031F818B1606D40F020006065D4
:1022E000A06828B108E0606D40F020006065EEE76E
:1022F0002068C16880680090616D012029B184F870
:1023000051002046FEF704FF38BD94F8511084F8C0
:1023100051000429204602D0FFF732F938BDFFF7FB
:102320002DF838BD3800002010B5806B0021C18722
:10233000C186FEF7EDFE10BD38B504461248134BBA
:102340000068B0FBF3F04FF47A7358430090606874
:10235000B0F5827F0DD10B460092002280212046ED
:1023600000F016F870B1606D40F020006065032049
:1023700038BD009830B1401E009020688068C0438E
:102380000006F6D5002038BD3800002000366E016A
:102390002DE9F0411D4617460E460446DDF818802B
:1023A00008E0681C06D0FEF789FBA0EB0800A842F5
:1023B0000BD255B12068806836EA000030D000208A
:1023C000B842EED10020BDE8F0812068416821F0DC
:1023D000E00141606068B0F5827F0BD1A068B0F584
:1023E000004F02D0B0F5806F04D12068016821F061
:1023F00040010160A06AB0F5005F09D12068016862
:1024000021F4005101602068016841F4005101602D
:10241000012084F85100002084F850000320D2E706
:102420000120CDE77047000070B5164900234FF436
:10243000806400BF01EB830202F58052D56900EB96
:10244000830202F5005215605B1CA342F2DB0246D8
:102450004FF4405311460C48FFF740F80B4C012253
:1024600008212046FEF725FB094908780028FCD002
:102470000020087002462046BDE870400821FEF7A3
:1024800018BB00003C000020A460002000000240B7
:1024900000000020024610B54FF4005311460B48CF
:1024A000FFF71CF80A4C012208212046FEF701FB29
:1024B000084908780028FCD0002008700246204611
:1024C000BDE810400821FEF7F4BA0000A460002027
:1024D0000000024000000020024610B5082311460B
:1024E0000A48FEF7FBFF0A4C012208212046FEF7AE
:1024F000E0FA084908780028FCD00020087002465D
:102500002046BDE810400821FEF7D3BAA4600020A1
:1025100000000240000000200C4910B504230A46C8
:102520000B48FEF7DBFF0B4C012208212046FEF78B
:10253000C0FA094908780028FCD00020087002463B
:102540002046BDE810400821FEF7B3BA88300020CD
:10255000A4600020000002400000002010B50446E6
:102560004FF0AA3020606060FEF7B6F82046BDE864
:102570001040FFF78FBF10B504464FF0AA3020601F
:102580006060FEF7A9F82046BDE81040FFF74CBF99
:1025900010B504464FF0AA3020606060FEF79CF84A
:1025A0002046BDE81040FFF797BF000010B500219E
:1025B0000648FFF7E0F904210448FFF7DCF9034877
:1025C000BDE810404030FFF799B80000546100208A
:1025D00010B500210648FFF7E0F904210448FFF791
:1025E000DCF90348BDE810404030FFF798B8000020
:1025F00054610020FEF768BA30B593B030216846C8
:10260000FDF716FE14210CA8FDF712FE194800254F
:10261000016841F080510160006800F08050119025
:102620001548016841F4804101600068022400F40B
:102630008040119001200390102000940694049093
:10264000CDE907504FF4A870CDE9090404200B90A0
:102650006846FEF7CFFB0CA90F2081E831004FF44C
:10266000A0500F90E002109005210CA8FEF7F2FA9E
:1026700013B030BD4038024000700040104801687F
:1026800041F4700101600F48016841F001010160EF
:102690000C4A00210832116002680B4B1A4002609C
:1026A000031D0A4A1A60026822F48022026005486B
:1026B0000C300160024958068039086070470000FC
:1026C00088ED00E000380240FFFFF6FE10300024E5
:1026D0000148FFF778B9000094610020F0B5026866
:1026E000254C264D264E274F274B4FF0804CA042BD
:1026F00009D0604507D0A84205D0B04203D0B84207
:1027000001D0984204D122F0700E4A6842EA0E02CB
:10271000A0421BD0604519D0A84217D0B04215D0B6
:10272000B84213D0984211D0184DA8420ED0184D7F
:10273000A8420BD0174DA84208D0174DA84205D08B
:10274000164DA84202D0164DA84203D122F440757E
:10275000CA682A434D6922F080022A4302608A68CF
:10276000C2620A688262A04201D0984201D109691E
:10277000016301214161F0BD0000014000040040FF
:1027800000080040000C00400004014000400140EF
:10279000004401400048014000180040001C004077
:1027A0000020004010B501F01F030121046A994088
:1027B0008C430462016A9A401143016210BD10B556
:1027C000846842EA032224F47F440A43224382605D
:1027D00010BD826822F070020A4342F00701816056
:1027E000704710B503689A6822F070044A68224363
:1027F00022F007040A6822439A604A6812F00F0F19
:1028000030D11211082A2DD2DFE802F02C2C2C2C0A
:102810000B2127040B69D1E902210068FFF7CFFFE4
:1028200020E00A68052A10D00268136A146A24F0AE
:102830000104146202689469096924F0F00444EA0E
:1028400001119161006803620CE0012010BD0A696A
:102850008968006800F008F804E00A69896800687F
:1028600000F054F8002010BD10B5036A046A24F08B
:1028700001040462846924F0F00444EA021423F0A1
:102880000A020A438461026210BD000070B5046A46
:1028900024F0010404628469056A154EB04214D024
:1028A000B0F1804F11D0134EB0420ED0124EB04254
:1028B0000BD0124EB04208D0114EB04205D0114E8E
:1028C000B04202D0104EB04203D124F003041443AE
:1028D00001E044F001041A0724F0F00444EA126213
:1028E00025F00A0301F00A0119438261016270BDFB
:1028F000000001400004004000080040000C0040BF
:1029000000040140004001400018004010B5036A77
:1029100023F0100303628369046A23F4704343EADB
:10292000023224F0A00343EA01118261016210BD6A
:1029300030B5046A24F0100404628469056A24F442
:10294000407444EA022222F470444FF6FF7202EA15
:1029500003322243A02425F0A00304EA0111194305
:102960008261016230BD70470C48016821F08071BE
:102970000160016841F0807101600948016821F03F
:1029800001010160016841F0010101600021416025
:10299000416800BF00BF4068401A7047FCED00E08E
:1029A000001000E000F087B90078282801D000204E
:1029B00070470120704700002DE9FE438046002546
:1029C00016460F462C460846FFF7EEFF002821D09A
:1029D000404600F070F900281CD0404600F09BF9FA
:1029E0003946404600F026FABE21404600F05AFA29
:1029F0006F46404600F07FF93855641CE4B2092C5C
:102A0000F7D30821684600F017F99DF808108142B5
:102A100002D00020BDE8FE83BDF80040404600F033
:102A20007AF9200403D5E043401C84B201259DF8C7
:102A30000400C4F30222C0F3411144F3071009312A
:102A400040EA0210092916D00A291DD00B2926D0E8
:102A50000C292DD05FF000009FED1A0A00EE900ABD
:102A6000F8EEE00A30EE800A0DB1B1EE400A86EDD4
:102A7000000A0120CEE7C4F3C00100EE101AF6EE02
:102A8000000AB8EE400A07E0C4F3810100EE101A14
:102A9000F5EE000AB8EE400A20EE200ADEE7C4F3A5
:102AA000420100EE101AF4EE000AB8EE400AF3E715
:102AB00004F00F0100EE101ADFED030AB8EE400A31
:102AC000EAE7000000007F430000803D70B5054646
:102AD0000C460846FFF768FF00280BD0284600F098
:102AE0001AF92146284600F0A5F94421284600F0AD
:102AF000D9F9012070BD000002490844C0F38F20BD
:102B0000704700000000FEBF00B5FFF7F5FF012190
:102B10008140024802681143016000BD3038024024
:102B20002DE9F04F9E464FF400330344C3F387274B
:102B3000DDF824B000234FF001094FF0030A00BF75
:102B400009FA03F50D4232D01C4E36F817402C43DB
:102B500026F81740D0F80CC05E000AFA06F42CEAFA
:102B6000040C0BFA06F84CEA080CC0F80CC0D0F8BC
:102B700000C002FA06F82CEA040C4CEA080CC0F873
:102B800000C0012A01D0022A11D1D0F804C0ADB290
:102B90002CEA050C0EFA03F5ADB24CEA050CC0F8B0
:102BA00004C08568A5430A9CB440254385605B1C2E
:102BB000DBB2102BC4D3BDE8F08F00002C620020E4
:102BC0002DE9FC411546DDE908760C00804608D069
:102BD000FFF79AFFCDE900762A4621464046FFF7E7
:102BE0009FFFBDE8FC8170B500220125032305FA93
:102BF00002F40C4205D00468560003FA06F6B4430A
:102C00000460521CD2B2102AF1D370BDF0B500227C
:102C10000123032403FA02F50D4208D0056856008B
:102C200004FA06F7BD4303FA06F73D430560521C5C
:102C3000D2B2102AEED3F0BD30B50446002011E028
:102C400014F8013B5FF0080280EA030515F0010F5C
:102C50004FEA500001D080F08C005B08521E12F049
:102C6000FF02F1D1491EC9B2EAD230BD10B5024609
:102C700000F074F8BDE81040F021104600F073B881
:102C8000002283185B7A8B54521CD2B2082AF8D3E4
:102C900070477CB515460E460446FFF765FE0120D9
:102CA000009002460190002329463046FFF788FF36
:102CB0002660A5807CBD70B504468088216800250B
:102CC00000048861A1882068FFF7A0FF0320FDF7BA
:102CD000EDFCA1882068FFF786FF0A20FDF7E6FCDF
:102CE00020680069A188084200D001253220FDF744
:102CF000DDFC284670BD70B505460824002006E0BE
:102D000046082846FFF7D7FF46EAC010C0B2641E47
:102D1000E4B2F5D270BD10B5044680882168000485
:102D20008861A1882068FFF771FF4FF4F070FDF70C
:102D3000BDFCA1882068FFF756FF4620FDF7B6FCD2
:102D400020680069A188084201D0012400E0002425
:102D50004FF4CD70FDF7AAFC204610BD0021817113
:102D60000172C17170472DE9F04704464FF0000928
:102D70000125007A88464F462E46CA46E0BB2046CB
:102D8000FFF7C9FFC0BB4146204600F08BF8204644
:102D9000FFF791FF80462046FFF78DFF4146B8F1CF
:102DA000010F01D1012830D0804502D001290AD07D
:102DB00017E0A079A8420CD904EB0700407A304212
:102DC00008D04FF0010104EB0700427A42EA060204
:102DD0000AE0F6D04FF00001A946092D01D284F88F
:102DE0000790E019427AB2434272204600F032F86E
:102DF0006D1CEDB2700000E013E010F0FF0602D190
:102E00007F1CFFB20126082FC1D3412D09D35FEAF1
:102E10000900A07101D101202072617A01200029EE
:102E200006D184F806A084F808A084F807A0002042
:102E3000BDE8F08770B50D460646552100F032F822
:102E400000243046295D00F02DF8641CE4B2082C03
:102E5000F7D370BD10B504468088020420680029AD
:102E60008261A18820680AD0FFF7D0FE0A20FDF712
:102E70001DFCA1882068FFF7B6FE372009E0FFF7A8
:102E8000C5FE4120FDF712FCA1882068FFF7ABFECC
:102E90000520FDF70BFCA1882068BDE81040FFF776
:102EA000A2BE000070B50C460646082506E000BF2D
:102EB00004F001013046FFF7CDFF64086D1EEDB24E
:102EC000F6D270BD70B5054600242846FFF77EF89F
:102ED000641C0A2CF9DB2846BDE87040FFF74BBBA9
:102EE00070B5064600243046FFF77EF8641C0A2CB5
:102EF000F9DB0D4DB0EE040A042085ED050A00F063
:102F0000C9F900243046FFF76FF8641C282CF9DB60
:102F100004209FED060A85ED050A00F0BBF9304656
:102F2000BDE87040FFF734BB3C000020000000000B
:102F300070B5074D064600243046FFF755F8641C6F
:102F4000AC42F9DB3046BDE87040FFF721BB000022
:102F5000A08601002DE9FC41002401262546F70248
:102F600000EE104A0022CDE90056B8EEC00A114624
:102F70001046BDEEC00A10EE103A00F039F90120FB
:102F8000FDF7A4FC641CBC42EADBBDE8FC81FEE763
:102F9000074A10B50523511F0648FEF79FFA04485B
:102FA000153801780029FCD00021017010BD000007
:102FB00015000020A46000200907090E002804DB8A
:102FC00000F1E02080F80014704700F00F0000F1DD
:102FD000E02080F8141D704702E008C8121F08C1E5
:102FE000002AFAD170477047002001E001C1121F8A
:102FF000002AFBD170470005800C010201EB102074
:1030000080B270471CB5FDF793FDFFF7F5FAFEF7A8
:1030100071FEFEF7D5FEFEF7E9FEFEF701FFFEF7B3
:1030200079FF00246A4900946848019408600846C2
:10303000FDF7B1FB00940022694665480194FDF755
:1030400089FB9FED640AB0EE401ADFED630A00F0E1
:10305000B7F90346002211465D48FDF7E1FB002168
:103060005B48FDF7EAFBFEF72BFFFEF7E1FDFEF7FD
:1030700017FE012211025948FDF71BFD002000F048
:1030800009F9012000F006F9022000F003F90320FD
:1030900000F000F9042000F0FDF8514EDFF8448103
:1030A000A6F10905A6F1150705F10409FFF770FF60
:1030B0003078787071782970B1786970F178A9707A
:1030C0003179E97010287DD2DFE800F008171D2360
:1030D000292D313E4246535D6571757889F800406F
:1030E000112189F80110222189F80210442189F860
:1030F0000310882189F80410D8E795ED000A002014
:1031000088ED010A32E095ED000A012088ED020AFF
:103110002CE095ED000A022088ED030A26E095EDEB
:10312000000A40461FE0FFF715FFBB2103E02E48D1
:10313000FEF742FFAA21484689F8001044708470C7
:10314000C47089F80440B1E72748FEF76DFFADE78A
:103150002548FDF7DFF8A9E798ED040ADFED230A1B
:10316000404630EE200A80ED040A032000F092F879
:103170009CE795ED000A1C4888ED060A98ED060AC2
:10318000FEF7A6FD92E795ED000A174888ED060ABE
:10319000FFF7E4F98AE795ED000A114888ED060A81
:1031A00098ED060AC01DFFF79BFE7FE70AE00E4878
:1031B000FFF788FE7AE7FEF727FF77E70A48FFF771
:1031C000B7FE73E7484689F80040B7E7007400404F
:1031D00090600020000000003333534000040240A0
:1031E000150000203C000020903000200AD7233C2E
:1031F000FEB50024DDE908658DF800408DF8044037
:103200008DF80840B3F5006F02DB40F2FF7402E076
:10321000002B00DB9CB2C00101F01F0140EA8100DD
:10322000C2F3C10108438DF80000C4F3841040EAE2
:1032300042108DF80400A00006F0010140EA4100B0
:1032400005F001010843114D8DF808004FF480642A
:10325000002221462846FDF72CFCA6103346012209
:1032600069460B48FEF78BF83346012201A908484E
:10327000FEF785F83346012202A90548FEF77FF8DC
:10328000012221462846FDF714FCFEBD0000024045
:10329000FC60002070B5014641489FED421ADFED09
:1032A000420A434C414AA515424E052976D2DFE831
:1032B00001F003193046570090ED010A00F080F844
:1032C000FFF799FE5080002240212046FDF7F1FBD8
:1032D00036492B460222891C3748FEF750F8012256
:1032E000402114E09FED350A00F06AF8FFF783FEF5
:1032F0005080002280212046FDF7DBFB2B492B4626
:103300000222891C2C48FEF73AF80122802120462F
:1033100040E090ED030A00F053F8FFF76CFE508098
:10332000002229462046FDF7C4FB20492B460222F5
:10333000891C2148FEF723F801222946E7E790ED92
:10334000040AF1EE040A30EE200AF2EE040A00F05C
:1033500037F8FFF750FE508000224FF480540BE006
:1033600090ED050AF1EE040A00F02AF8FFF743FE9B
:10337000508000224FF4006421463046FDF799FB4F
:103380000A492B460222891C0B48FDF7F8FF01224F
:1033900021463046BDE87040FDF78BBB70BD000094
:1033A0003C00002000000000295C4F40000000208D
:1033B0000008024000000240FC600020CDCC8C3EA2
:1033C000B4EEE00A0020F1EE10FA02DD40F6FF70E4
:1033D0007047B4EEC10AF1EE10FAF9D330EEC11A1B
:1033E000DFED051AC1EE810A20EE800ABCEEC00AAC
:1033F00010EE100A80B27047000080450000000007
:103400000000000001020304060708092C3400082C
:10341000000000203C000000D82F0008683400089D
:103420003C0000200C660000E82F000800000000AF
:103430000000000000000000000000000000AB00E1
:10344000CD000000000000000000000000000000AF
:10345000000000000000000001000000100000005B
:08346000000000000024F4004C
:040000050800018965
:00000001FF
