:020000040800F2
:10000000E85500209D0100088B1E0008071B000812
:10001000891E0008A90200087D26000800000000D3
:100020000000000000000000000000000D22000899
:10003000D905000800000000B11F0008B92200081F
:10004000B7010008B7010008B7010008B7010008B0
:10005000B7010008B7010008B7010008B7010008A0
:10006000B7010008B7010008B7010008B701000890
:10007000B7010008B7010008B7010008B701000880
:10008000B7010008B7010008B7010008B701000870
:10009000B7010008B7010008B7010008B701000860
:1000A000B7010008B7010008B7010008B701000850
:1000B00095230008A1230008B7010008B701000834
:1000C000B7010008B7010008B7010008B51F000814
:1000D000B7010008B7010008B7010008B701000820
:1000E000B7010008B7010008B7010008B701000810
:1000F000B7010008B7010008B7010008B701000800
:10010000B7010008B7010008AD230008B7010008D7
:10011000B7010008B7010008B7010008B7010008DF
:10012000B7010008B7010008B7010008B7010008CF
:10013000B70100080000000000000000B70100083F
:10014000B7010008B7010008B7010008B7010008AF
:10015000B7010008B7010008B7010008B70100089F
:10016000B7010008B7010008B7010008B70100088F
:10017000B7010008B70100080000000000000000FF
:10018000B7010008B7010008DFF80CD000F07AF8DA
:1001900000480047F5260008E8550020064880473B
:1001A00006480047FEE7FEE7FEE7FEE7FEE7FEE75C
:1001B000FEE7FEE7FEE7FEE74123000889010008AD
:1001C0002DE9F05F0546002092469B46884606468C
:1001D000814640241BE0284641464746224600F01F
:1001E00041F853465A46C01A914110D31146184659
:1001F000224600F028F82D1A67EB01084F462246E8
:100200000120002100F01FF817EB00094E41201ECD
:10021000A4F10104DFDC484631462A464346BDE8E6
:10022000F09FD2B201E000F8012B491EFBD27047CB
:100230000022F6E710B513460A4604461946FFF7B2
:10024000F0FF204610BD202A04DB203A00FA02F11C
:10025000002070479140C2F1200320FA03F31943B4
:1002600090407047202A04DB203A21FA02F0002156
:10027000704721FA02F3D040C2F1200291400843B6
:1002800019467047064C074D06E0E06840F0010350
:1002900094E8070098471034AC42F6D3FFF778FF94
:1002A000CC2A0008EC2A0008FEE7000010B50F4A2F
:1002B00000214FF4806400BF50F8313000EE103A56
:1002C00000EBC103F8EEC00A5B6800EE103A02EBE7
:1002D000810303F50053B8EEC00A491CA14280EE29
:1002E000801A83ED071AE7DB10BD00003000002004
:1002F0002DE9F14F00262DED028B82B007463546E1
:10030000B146B046B3469FED760A764C032084EDA5
:10031000040A02F01FFB04F11C013846009101F0B1
:10032000FFFD0490FFF7C2FF6F4F00204FF4806382
:1003300004EB800101F5005191ED070A10EE102A3F
:10034000BA4202DD08F101080AE091ED070A674AA6
:1003500010EE101A914202DA09F1010900E06D1C59
:10036000401C9842E4DBC14502DD9FED618A01E05B
:100370009FED608ADFF880814FF081499A46012025
:1003800037E000BF30EE080A032084ED040A02F0D3
:10039000E1FA0099049801F0C3FD0490FFF786FF8D
:1003A00029460025514B284604EB800202F50052F5
:1003B00092ED070A10EE10CABC4506DC92ED070A62
:1003C00010EE102A9A4200DB6D1C401C5045EBDBFE
:1003D000681A07D5C82905DD4FF0010B049801F014
:1003E00017FF05E0049801F013FFBBF1000FC6D022
:1003F000002094ED040A10EE101A414501D20121AB
:1004000000E0002194ED040A084010EE101A49455E
:1004100001DA012100E0002194ED040A0842B1D183
:1004200030EE480A032084ED040A02F093FADFF864
:10043000CC804FF4006940F2FF7B57460099049846
:1004400001F06EFD0490FFF731FF00254FEA050231
:1004500004EB820101F5005090ED070A10EE103A0E
:10046000434507DB90ED070ADFF894C010EE103A21
:10047000634506DDCB69002B03DDD1F81CC0DC45EC
:1004800000DB6D1C90ED070A00F096F8CB6918446C
:10049000C861C869484501DB584603E0C8690028BF
:1004A00001DA0020C861521CBA42D1DB761C0498E4
:1004B00001F0AEFEBD4201DA192EBFDB049801F057
:1004C000C9FE002004EB8001CA6901F58051CA61B0
:1004D000401CB842F6DB02B0BDEC028BBDE8F88FE1
:1004E00000000000300000209A99593F9A99193E67
:1004F000CDCCCCBDCDCCCC3D000080C08FC2F53E74
:10050000B81E053F2DE9F14F284D41F21C00284E41
:10051000002405EB000B4FF4006940F2FF7A4FF422
:1005200080675946009801F0FBFC0090FFF7BEFE83
:1005300000231A4605EB820101F5005090ED070AF1
:1005400010EE10CAB44507DB90ED070ADFF86480AF
:1005500010EE10CAC4450ADD01F5805CDCF81C8091
:10056000B8F1000F03DDDCF81C80D04500DB5B1C1C
:1005700090ED070A00F020F801F58051D1F81CC079
:100580006044C861C869484501DB504603E0C8695A
:10059000002801DA0020C861521CBA42CADB641C80
:1005A000BB4201DA0A2CBCDBBDE8F88F300000202A
:1005B0008FC2F53EB81E053FF6EE000A30EEC00AC7
:1005C000DFED040A20EE200ABDEEC00A10EE100A8C
:1005D0007047000000002F43704770B54379012B2E
:1005E0001AD0012646710223037105682C6840F673
:1005F000FE7393409C43D1E900310B439340234366
:100600002B6001680B68C0249440A3430B60067103
:1006100000214171084670BD022070BD70B5040014
:1006200003D02079002510B105E0012070BD65716F
:10063000204600F007F8022020712561012020717A
:10064000002070BD10B586B0044614216846FFF73F
:10065000EFFD1149206888421CD110480021026832
:1006600042F000520260006800F0005005900B4814
:100670001038026842F001020260006800F00100D8
:100680000590102000900320CDE90101694604483F
:1006900000F070F806B010BD007400404038024011
:1006A0000000024018B5046800940068104421B1AD
:1006B000143000900360002018BD0830F9E730B511
:1006C0004279012A16D00122427102230371036884
:1006D0001D6802FA01F425431D60002901680B68BA
:1006E0000AD00C6803F4802304F46014B3F5802F5F
:1006F0000FD015E0022030BD0C6803F0040304F0B5
:100700003804042B0CD1382C0AD14B6843F0010378
:1007100005E0B4F5601F03D14B6843F002034B6062
:10072000027100214171084630BD90F83510022950
:1007300003D08021416501207047052180F83510E4
:100740000068016821F0010101600020704700008D
:1007500070B5044600F0F0F80546601C02D004486D
:100760000078044400F0E8F8401BA042FAD370BDC2
:10077000200000202DE9F84FDFF87CB100224FF077
:1007800001084FF0030A4FF00F090BF1040E00BFF0
:100790000B6808FA02F42340A3426ED14D68022D83
:1007A00001D0122D0ED1D50800EB850CDCF82050BD
:1007B0005607F70E09FA07F6B5430E69BE402E43F9
:1007C000CCF82060066855000F790AFA05FC07F09E
:1007D000030726EA0C06AF40374307604E68012E38
:1007E00005D0022E03D0112E01D0122E0ED1866814
:1007F000CF6826EA0C06AF40374387604668A643B9
:100800000C79C4F30014944034434460C6688C6887
:1008100026EA0C06AC403443C4604C68E40065D55D
:10082000364C256845F480452560246822F0030590
:1008300004F480440094324C2E19D6F808489507E9
:100840002F0F09FA07F5AC432E4DA84201D1002520
:1008500024E02D4DA84201D101251FE02B4DA842D7
:1008600001D102251AE02A4DA84201D1032515E045
:10087000284DA84202D1042510E037E0264DA842B9
:1008800001D105250AE0254DA84201D1062505E044
:10089000234DA84201D1072500E00825BD4025438E
:1008A000C6F80858DBF800405D464E689C43F603E6
:1008B00000D51C432C60DEF8004075464E689C4312
:1008C000B60300D51C432C600B4D08352C684E68D0
:1008D0009C43F60200D51C432C60074D0C352C6858
:1008E0004E689C43B60200D51C432C60521C102A53
:1008F000FFF44EAFBDE8F88F003C014044380240A1
:1009000000300140000002400004024000080240A4
:10091000000C024000100240001402400018024087
:10092000001C02400069084000D0012070470AB155
:10093000816170470904FBE7014880687047000047
:1009400020000020024881680278114481607047CD
:10095000200000200B4810B5016841F400710160CF
:10096000016841F480610160016841F480710160B7
:10097000032000F06FF8002000F006F800F024F8E3
:10098000002010BD003C024070B50D4D04464FF4F0
:100990007A712878B1FBF0F00A490968B1FBF0F0F0
:1009A00000F004FD48B9102C07D200222146501E49
:1009B00000F030F800206C6070BD012070BD0000B8
:1009C000200000202C0000200A4808B5016841F4EE
:1009D00080410160006800F4804000900548001FDD
:1009E000016841F080510160006800F08050009083
:1009F00008BD000044380240002809DB00F01F0257
:100A0000012191404009800000F1E020C0F8001170
:100A100070470000F0B40E4B1B680C46C3F3022372
:100A2000C3F10705042D00D90425191D072901D29A
:100A3000002300E0DB1E012606FA05F1491E2140D5
:100A400099409E40761E16403143F0BC01F02CBE0A
:100A50000CED00E0064900F0070208684FF6FF03BE
:100A6000184040EA0220034A104308607047000023
:100A70000CED00E00000FA052DE9F0470E460500F8
:100A800065D0DFF81481D8F80000F7B200F00F004D
:100A9000B04207D288F80070D8F8000000F00F00CC
:100AA000B04254D128683D4C810712D5400703D588
:100AB000206840F4E05020602878000703D52068C3
:100AC00040F4604020602068A96820F0F0000843EE
:100AD00020602878C0072DD030496868083901287F
:100AE00012D0022813D0032811D0096889070029E1
:100AF0002DDA216821F0030101432160FFF71CFF7B
:100B0000814641F2883A0EE009688903EFE70968F7
:100B10008901ECE7FFF710FFA0EB0901514502D96D
:100B20000320BDE8F0872068696800F00C00B0EB96
:100B3000810FEFD1D8F80010404601F00F01B1420B
:100B400007D90770006800F00F00B04201D0012003
:100B5000E7E72878400705D52068E96820F4E050E9
:100B6000084320602878000706D52068296920F40A
:100B7000604040EAC100206000F016F82168084A91
:100B8000C1F30311515CC840064908600020FFF71B
:100B9000FBFE0020C5E70000003C02400838024090
:100BA000BC2A00082C000020154810B5006810F081
:100BB0000C02144813D01449042A0FD0082A0ED16D
:100BC0000F4C241F2268236802F03F025B0207D506
:100BD0002068C0F38810A0FB010106E0084610BDA4
:100BE0002168C1F38811A1FB00010023FFF7E8FA97
:100BF0002168C1F30141491C4900B0FBF1F010BD6F
:100C0000083802400024F40040787D012DE9F84FB7
:100C1000050076D02878DFF8F8B2BE4CC00749D07E
:100C2000DBF800105846C1F38101012908D00068A3
:100C3000C0F3810002280AD1201D0068400206D5B9
:100C40002068800336D568680028E2D032E0686802
:100C5000B0F5803F10D0B0F5A02F206810D020F460
:100C600080302060206820F4802020606868A0B177
:100C7000FFF762FE06460CE0206840F48030F4E79F
:100C800040F480202060F7E7FFF756FE801B6428C1
:100C900073D820688003F7D50CE0FFF74DFE0646B9
:100CA00005E000BFFFF748FE801B6428F0D82068ED
:100CB0008003F7D42878DFF8608280074FF00009BE
:100CC0003ED5DBF80010584611F00C0F09D0006833
:100CD000C0F3810002280BD18D48001F006840023C
:100CE00006D42068800715D5E868012809D111E0ED
:100CF000E868B8B10120C8F80000FFF71DFE0646FD
:100D000005E002E1FFF718FE801B0228C0D820682A
:100D10008007F7D52068296920F0F80040EAC10073
:100D200020600DE0C8F80090FFF706FE064604E0DC
:100D3000FFF702FE801B02281FD820688007F7D427
:100D40002878000722D5724E744869696C3671B1F3
:100D500001210160FFF7F0FD074604E0FFF7ECFD1D
:100D6000C01B022809D830688007F7D50EE0C0F80C
:100D70000090FFF7E1FD074605E083E0FFF7DCFDAB
:100D8000C01B02287ED830688007F7D42878400737
:100D900068D5DFF87CA100270AF1380ADAF80000EC
:100DA000C0000BD4DAF8001041F08051CAF80010EE
:100DB000DAF80000012700F080500090584E3068AB
:100DC000C00510D4306840F480703060FFF7B4FD87
:100DD000009005E0FFF7B0FD0099401A022851D8B5
:100DE0003068C005F6D54A4EA868683601280FD08D
:100DF0000528306810D020F001003060306820F005
:100E000004003060A868B8B1FFF796FD00900FE0CD
:100E1000306840F00100F4E740F004003060F7E78C
:100E2000FFF78AFD0099411A41F28830814264D867
:100E300030688007F4D50EE0FFF77EFD009007E0F4
:100E4000FFF77AFD0099411A41F28830814254D867
:100E500030688007F4D42FB1DAF8001021F0805107
:100E6000CAF80010A869C0B3DBF80010C1F3810113
:100E700002294AD00228484607D0C8F86000FFF788
:100E80005BFD00E039E005463AE04746C8F86000FF
:100E9000FFF752FD064604E0FFF74EFD801B0228D7
:100EA0002BD820688001F7D4D5E907010843A96A47
:100EB0001C4A490802EB01416A6A41EA821108436F
:100EC00095F82C1040EA01611148001F01600120D3
:100ED0003866FFF731FD054605E014E0FFF72CFD0D
:100EE000401B022809D820688001F7D50BE000BF1D
:100EF000FFF722FD401B022802D90320BDE8F88F2E
:100F000020688001F4D40020F8E70120F6E7000013
:100F1000083802400038024000004742800E474235
:100F2000007000400000FFFF7047000038B5016806
:100F300004464A688868C043430606D5C30704D1FF
:100F4000D3435B0601D4216C05E0830708D4D34367
:100F50001B0605D4616C01B02046BDE8304008474F
:100F6000830603D5430601D5C30551D4D3439B065D
:100F70004ED443060AD494F85130032B49D0636D04
:100F800043F004036365CB688B680093830609D440
:100F9000636D43F0010363658B6800930B6823F076
:100FA00040030B60C00506D4606D40F0080060652A
:100FB000206880680090606D002829D02068416812
:100FC00021F0E0014160012084F85100900701D434
:100FD000D00722D02068416821F003014160114D03
:100FE000E06C40B10565E06CFFF79FFB18B1606DE8
:100FF00040F040006065A06C002809D00565A06C39
:10100000FFF793FB002803D0606D40F0400060655F
:1010100038BDC8688868009038BD2046FFF784FF57
:1010200038BD00001121000870B5040005D000256E
:10103000A56294F8510010B106E0012070BD84F85B
:101040005050204600F030F8022084F8510020680B
:10105000016821F040010160D4E901010843D4E9AD
:1010600003121143084361690843218B01F40071A5
:101070000843E1690843216A0843A16A08432168DB
:101080000860A069042101EA1040616A08432168F0
:1010900048602068C16921F40061C1616565012073
:1010A00084F85100002070BDF0B587B004461421CB
:1010B0006846FFF7BDF8314A216800243048022510
:1010C00003260527914226D12D4914310A6842F49E
:1010D00080520A60096801F480510591016841F06D
:1010E00001010160006802AA00F00100059048F2C9
:1010F000E000CDE9000582E8D00069462148FFF70D
:1011000039FB002211462320FFF784FC2320FFF740
:1011100073FC07B0F0BD1C4A9142FAD11849103156
:101120000A6842F480420A60096801F4804105912E
:10113000016841F004010160016801F004010591BA
:10114000016841F002010160006802AA00F002009B
:1011500005900C20CDE9000582E8D00069460B48D7
:10116000FFF708FB4FF48060CDE9000502AA69464D
:1011700082E8D0000648FFF7FDFACAE700300140D8
:1011800030380240000002400038004000080240B1
:101190000004024070472DE9F84F044690F85000D3
:1011A00000271D461646894601280DD04FF0010B39
:1011B00084F850B0FFF7C0FB804694F85100BA465F
:1011C000012804D002278EE00220BDE8F88FB9F193
:1011D000000F7DD0002E7BD0032084F85100C4F88E
:1011E00054A0C4F83090A686E686C4F838A0A4F8C7
:1011F0003CA0A4F83EA0C4F844A0C4F840A0A06855
:10120000B0F5004F04D12068016841F480410160CD
:1012100020680168490603D4016841F0400101607B
:10122000E068B0F5006F606803D030B3012E24D0C1
:1012300040E008B1012E1CD1206B21680088C860F5
:1012400006E020688168890709D5216B0988C1609B
:10125000206B801C2063E08E401EE08609E0FFF7D3
:101260006BFBA0EB0800A84202D3681C01D031E060
:101270007DB3E08E0028E4D11FE0206B2168007868
:10128000087306E020688168890709D5216B097811
:101290000173206B401C2063E08E401EE08609E055
:1012A000FFF74AFBA0EB0800A84202D3681C01D05C
:1012B00010E075B1E08E0028E4D142462946204670
:1012C00000F02EFF08B120206065A06820B107E083
:1012D00008E0FFE7032706E02068C1688068009007
:1012E000606D00B1012784F851B084F850A03846F1
:1012F0006BE70000F0B590F850500024012D0CD0A1
:10130000012580F8505090F8515000264768012D73
:101310000BD0B7F5827F06D101E00220F0BD8768CF
:101320000FB9042D01D0022429E0A9B1A2B19BB1CB
:1013300090F85150042D02D0052580F85150466593
:1013400001638386C38682638387C387C16829B1AB
:101350000D4901640D4904E0012410E00C490164C9
:101360000C49416401684A6842F0E0024A60016841
:101370000A68520603D40A6842F040020A6080F804
:1013800050602046F0BD0000C11F00082120000869
:10139000F11F0008512000080348012101708168F5
:1013A000491C8160704700000000002010B5401EFD
:1013B000B0F1807F01D3012010BD4FF0E0246061C7
:1013C0000F21601701F070F90020A0610720206153
:1013D000002010BD7047704770B590F83C20012A7E
:1013E00019D0012400F83C4F0222427050F83C3CD6
:1013F0005A689D6822F070060A684968324325F0F1
:10140000800529435A6050F83C2C916044700021BB
:101410000170084670BD022070BD10B5040003D0F5
:1014200094F83D0010B107E0012010BD002084F8C1
:101430003C00204600F00CF8022084F83D00211DFD
:10144000206800F0B9FF012084F83D00002010BDA5
:10145000F0B587B0044614216846FEF7E9FE314B2B
:10146000266800242F49103B022201252E48B6F1A0
:10147000804F15D02D4FBE4231D1086840F0020098
:1014800008600868002200F00200059011461D2047
:10149000FFF7C0FA5FF01D00FFF7AEFA07B0F0BD2E
:1014A0000E6846F001060E60096801F00101059121
:1014B000196841F00101196019680092CDE9012411
:1014C00001F00101CDE9045103946946FFF752F997
:1014D000002211461C20FFF79DFA1C20DCE7144F68
:1014E000BE42DBD10E6846F008060E60096801F0C6
:1014F00008010591196841F001011960196800950A
:10150000CDE9012401F00101CDE9042103946946EC
:10151000FFF730F9002211463220FFF77BFA322024
:10152000BAE70000403802400000024000040040DA
:10153000000C00400168CA6842F00102CA600068FD
:10154000816801F00701062903D0016841F001011B
:101550000160002070470168CA6822F00102CA6079
:101560000068016A41F21112114207D1016A92101A
:10157000114203D1016821F0010101600020704790
:1015800070B5044690F83C00012817D0012584F876
:101590003C50022084F83D002068826822F07702E7
:1015A00022F47F4282600868502830D00DDC202869
:1015B0004DD005DC98B310283BD148E0022070BD27
:1015C000302844D0402834D139E0602828D0702811
:1015D00006D0B0F5805F2CD0B0F5005F29D10AE0CD
:1015E000CB68D1E90121206800F057FF20688168AD
:1015F00041F0770109E0CB68D1E90121206800F0D2
:101600004CFF2068816841F48041816011E0CA6824
:101610004968206800F096FF5021206807E016E036
:10162000CA684968206800F0DFFF6021206800F088
:101630003EFF84F83D50002084F83C0070BDCA682D
:101640004968206800F07EFF40212068EFE72268AB
:1016500001461046EBE7000070B505461648854286
:1016600025D116484078002821D1287F01281ED195
:10167000134C207DE0B10021284600F003FA064615
:101680000421284600F0FEF9864210D800212846A1
:1016900000F0F8F96168084460600421284600F011
:1016A000F1F9216808442060A068401CA06070BD6A
:1016B0000120207570BD000028510020000000208E
:1016C0004C3000202DE9F041044690F83C000D46D6
:1016D00001283DD0012684F83C60022084F83D00BA
:1016E000AAB3042A46D02068082A55D0D5E9002795
:1016F000E968036A23F480530362D0F81CC0036ACC
:101700002CF4407C4CEA07274FF6FF7C27F4704707
:101710000CEA013139434FF4204723F4204307EA10
:1017200002321A43C16102622068C16921F440613A
:10173000C1612068C169AA6841EA0221C0F81C1091
:1017400084F83D60002084F83C00BDE8F08101E0B1
:101750000220FAE7D5E90012EB68206800F004FFE8
:101760002068816921F00C01816120688169AA6883
:1017700011430FE0D5E90012EB68206800F046FF46
:101780002068816921F44061816120688169AA68CB
:1017900041EA02218161D3E7D5E9002C2F7B016A60
:1017A00021F480710162C169036A21F0030141EAF9
:1017B0000C0121F0F00C39074FF420674CEA11615D
:1017C00023F4206307EA02221A43C16102622068FF
:1017D000C16921F00C01C1612068C169AA68114387
:1017E000ACE710B5040003D094F83D0010B107E059
:1017F000012010BD002084F83C00204600F00CF8C9
:10180000022084F83D00211D206800F0D5FD012054
:1018100084F83D00002010BD704710B502680446F2
:1018200031B1042908D008291AD00C2908D11BE0AD
:10183000D06840F0020002E0D06840F00400D060C0
:101840000122206800F01CFE2068816801F0070179
:10185000062903D0016841F001010160002010BD9C
:10186000D06840F00800EAE7D06840F01000E6E7F2
:1018700010B50268044631B1042908D008291ED0E9
:101880000C2908D11FE0D06820F0020002E0D068E7
:1018900020F00400D0600022206800F0F1FD2068F4
:1018A000016A41F21112114207D1016A92101142EC
:1018B00003D1016821F001010160002010BDD06852
:1018C00020F00800E6E7D06820F01000E2E770B5ED
:1018D0000446006801694FF00005C943890715D423
:1018E000C168C943890711D4E91E0161012020772D
:1018F000206880698007204602D0FFF7ADFE04E033
:1019000000F098F8204600F096F8257720680169E5
:10191000C943490717D4C168C943490713D46FF0B5
:1019200004010161022020772068806910F4407F63
:10193000204602D0FFF790FE04E000F07BF820463E
:1019400000F079F8257720680169C943090716D4A2
:10195000C168C943090712D46FF00801016104206E
:1019600020772068C0698007204602D0FFF774FE08
:1019700004E000F05FF8204600F05DF8257720686D
:101980000169C943C90617D4C168C943C90613D43C
:101990006FF010010161082020772068C06910F401
:1019A000407F204602D0FFF757FE04E000F042F8E7
:1019B000204600F040F8257720680169C943C9072F
:1019C00008D1C168C943C90704D1891E01612046F5
:1019D00000F032F820680169C943090609D4C168DA
:1019E000C943090605D46FF0800101612046FFF765
:1019F000F1FC20680169C943490609D4C168C9439B
:101A0000490605D46FF040010161204600F07AF8E4
:101A100020680169C94389060BD4C168C943890696
:101A200007D46FF0200101612046BDE87040FFF748
:101A3000D2BC70BD704770470E4910B50120487088
:101A40000D4CA06848B12068A168B0FBF1F020609F
:101A50006068A168B0FBF1F008E00848206002214E
:101A60000748FEF75FFF012802D00020606010BD2C
:101A70002068FBE7000000204C30002020480100D7
:101A8000000002400246002041B1042909D0082983
:101A90000AD00C2901D11068006C70471068406BA7
:101AA00070471068806B70471068C06B704770B5E6
:101AB000044690F83C00012812D0012584F83C50DF
:101AC000022084F83D00204600F0F9FC01004FF0B0
:101AD000000007D084F83D5084F83C00012070BD20
:101AE000022070BD2168CA6822F04002CA602168E5
:101AF000CA6822F48042CA6084F83D5084F83C00F1
:101B0000002070BD7047FEE730B5164820210170F7
:101B100041709FED150ADFED150A80ED010AC0ED59
:101B2000020ADFED130A134CC0ED030A80ED040A2C
:101B3000002180ED050A0B464FF48062C4F80C10BA
:101B400000EB8305EA615B1C9342F9DBC4F80C10DF
:101B500000EB810303F58053DA61491C9142F7DB06
:101B6000E16030BD300000200000000096438B3E55
:101B70009A99993E0000002070B506460024304630
:101B800000F08EF9641C0A2CF9DB0D4DB0EE040A4E
:101B9000042085ED050A00F0DDFE0024304600F04B
:101BA0007FF9641C282CF9DB304600F053FB9FEDD5
:101BB000050A042085ED050ABDE8704000F0CABEA4
:101BC00030000020000000002DE9F04786B014210D
:101BD0006846FEF72DFB2B480024016841F0040104
:101BE0000160016801F004010591016841F0010103
:101BF0000160016801F001010591016841F00201F5
:101C000001600068DFF8808000F00200059000228B
:101C100008214046FEF78BFEDFF870904FF4E07627
:101C2000012231464846FEF782FE0122310140463C
:101C3000FEF77DFEDFF858A04FF48077002239468A
:101C40005046FEF774FE41F6084000900125CDE9AC
:101C50000154694640460394FEF78CFD0096CDE999
:101C60000154694648460394FEF784FD0097CDE988
:101C70000154694650460394FEF77CFD06B0BDE86A
:101C8000F0870000303802400000024000080240A7
:101C90000004024009480849016000214160816058
:101CA000C1600161416181610162416281620A2119
:101CB000C162FFF7B9B90000003001407850002040
:101CC0000B480A49012201604FF4827141600021F2
:101CD0008160C160C0E904125202C0E906210162BC
:101CE000416281620A21C162FFF79EB9003800405B
:101CF000D050002010B590B0002409940A940B94A1
:101D0000142104A80C94FEF793FA2148039400943C
:101D1000019402940D944FF080410E94C0E9001498
:101D2000611EC0E9024104618461FFF776FB4FF454
:101D30008050099009A91648FFF722FC1448FFF7C4
:101D400050FD042004906020CDE90504079404A907
:101D50000F480894FFF7ABFE02200090CDE9010484
:101D6000002269460A480394FFF7ACFC0120CDE944
:101D70000040042269460648FFF7A4FC2020CDE974
:101D80000D040DA90248FFF727FB10B010BD00009D
:101D90002851002010B586B0002412480094019408
:101DA0000294039404940E49059401600121C0E952
:101DB00001144AF21041C0E903148461FFF72DFBBE
:101DC0004FF48050009069460648FFF7D9FB049411
:101DD00004A904480594FFF7FFFA06B010BD0000FF
:101DE000000400406851002010B590B00024099410
:101DF0000A940B94142104A80C94FEF719FA2148B4
:101E000003940094019402940D941D490E94C0E92A
:101E10000014611EC0E9024104618461FFF7FDFA0C
:101E20004FF48050099009A91648FFF7A9FB1548FF
:101E3000FFF7D7FC042004905020CDE90504079457
:101E400004A910480894FFF732FE0120CDE90040B4
:101E50000294002269460B480394FFF733FC0220EA
:101E600000900190042269460648FFF72BFC2020D1
:101E7000CDE90D040DA90348FFF7AEFA10B010BD6F
:101E8000000C0040A8510020FEE7704710B5034940
:101E900000F046F8BDE8104000F0BAB94C00002050
:101EA00010B50446FEF72EFB0349204600F038F833
:101EB000BDE8104000F0ACB94C1000202DE9F04115
:101EC000154CBFEE080A2DED028B074684ED040A7F
:101ED0009FED128A4FF07F5604F11C0512E003209B
:101EE00000F038FD2946384600F01AF8294600F07F
:101EF00017F8074600F08CF994ED040A30EE080A52
:101F000084ED040A94ED040A10EE100AB042E6DBF8
:101F1000BDEC028BBDE8F08130000020CDCCCC3C84
:101F20002DE9FC5F8B46074600F0A2F90025A84684
:101F3000DFF870A0DFF870902BE0002424E000BFF1
:101F400004EB4516CDF80080CDF804805BF8263010
:101F5000EAB2E1B2012000F0ABFC52465078002812
:101F6000FCD01248416847F83610016807EBC603F9
:101F7000596082F80180C0F80480C0F80080C0F881
:101F8000088080F81480641C99F80000A042D7DC17
:101F90006D1C99F80110A942CFDC00F07BF938469E
:101FA000BDE8FC9F00000020300000204C300020E5
:101FB000704700000148FEF7B9BF000078500020CC
:101FC0000168C968826B1180816B891C8163C18F34
:101FD000491EC187C18F002909D101684A6822F0D2
:101FE00040024A60C18E002901D100F049B8704713
:101FF0000168097B826B1170816B491C8163C18F01
:10200000491EC187C18F002909D101684A6822F0A1
:1020100060024A60C18E002901D100F031B87047DA
:10202000016B02680988D160016B891C0163C18E54
:10203000491EC186C18E002909D101684A6822F073
:1020400080024A60C18F002901D100F019B87047A1
:10205000016B026809781173016B491C0163C18E21
:10206000491EC186C18E002909D101684A6822F043
:1020700080024A60C18F002901D100F001B8704789
:1020800038B50446214845F6C0510068B0FBF1F070
:10209000642148430090FEF74FFC024620684168E7
:1020A00021F020014160009888B1401E0090206816
:1020B00080688007F7D56421204600F031F818B118
:1020C000606D40F020006065A06828B108E0606D98
:1020D00040F020006065EEE72068C16880680090ED
:1020E000616D012029B184F851002046FEF71CFFE4
:1020F00038BD94F8511084F851000429204602D0CC
:10210000FFF74AF938BDFFF745F838BD2C0000202D
:1021100010B5806B0021C187C186FEF705FF10BD99
:1021200038B504461248134B0068B0FBF3F04FF487
:102130007A73584300906068B0F5827F0DD10B46EA
:10214000009200228021204600F016F870B1606DE8
:1021500040F020006065032038BD009830B1401E7B
:10216000009020688068C0430006F6D5002038BD86
:102170002C00002000366E012DE9F0411D46174667
:102180000E460446DDF8188008E0681C06D0FEF70D
:10219000D3FBA0EB0800A8420BD255B120688068A1
:1021A00036EA000030D00020B842EED10020BDE871
:1021B000F0812068416821F0E00141606068B0F57D
:1021C000827F0BD1A068B0F5004F02D0B0F5806FD0
:1021D00004D12068016821F040010160A06AB0F5D7
:1021E000005F09D12068016821F400510160206876
:1021F000016841F400510160012084F85100002081
:1022000084F850000320D2E70120CDE7704700009A
:10221000024610B54FF4005311460B48FFF76AF819
:102220000A4C012208212046FEF781FB0849087864
:102230000028FCD00020087002462046BDE810406F
:102240000821FEF774BB0000785000200000024017
:102250000000002000214FF0AA324FF4006300BFBD
:1022600040F82120491C9942FADBFFF7D1BF00005A
:1022700010B500210648FFF7D0FA04210448FFF703
:10228000CCFA0348BDE810404030FFF753B90000D6
:102290002851002010B500210648FFF7E9FA042173
:1022A0000448FFF7E5FA0348BDE810404030FFF767
:1022B00052B9000028510020FEF744BB30B593B05E
:1022C00030216846FDF7B4FF14210CA8FDF7B0FFDC
:1022D00019480025016841F080510160006800F054
:1022E000805011901548016841F4804101600068F8
:1022F000022400F4804011900120039010200094EB
:1023000006940490CDE907504FF4A870CDE9090474
:1023100004200B906846FEF779FC0CA90F2081E899
:1023200031004FF4A0500F90E002109005210CA84E
:10233000FEF7A2FB13B030BD4038024000700040F1
:102340001048016841F4700101600F48016841F0D4
:10235000010101600C4A00210832116002680B4B38
:102360001A400260031D0A4A1A60026822F48022A1
:10237000026005480C300160024958068039086047
:102380007047000088ED00E000380240FFFFF6FED5
:10239000103000240148FFF79ABA000028510020AD
:1023A0000148FFF794BA0000685100200148FFF788
:1023B0008EBA0000A8510020F0B50268254C264DC9
:1023C000264E274F274B4FF0804CA04209D0604546
:1023D00007D0A84205D0B04203D0B84201D09842FD
:1023E00004D122F0700E4A6842EA0E02A0421BD0CD
:1023F000604519D0A84217D0B04215D0B84213D0CA
:10240000984211D0184DA8420ED0184DA8420BD0BA
:10241000174DA84208D0174DA84205D0164DA84226
:1024200002D0164DA84203D122F44075CA682A434F
:102430004D6922F080022A4302608A68C2620A68FB
:102440008262A04201D0984201D109690163012151
:102450004161F0BD00000140000400400008004060
:10246000000C0040000401400040014000440140D5
:102470000048014000180040001C004000200040BF
:1024800010B501F01F030121046A99408C430462D6
:10249000016A9A401143016210BD10B5846842EA96
:1024A000032224F47F440A432243826010BD8268E1
:1024B00022F070020A4342F007018160704710B5B4
:1024C00003689A6822F070044A68224322F00704E5
:1024D0000A6822439A604A6812F00F0F30D1121135
:1024E000082A2DD2DFE802F02C2C2C2C0B212704FB
:1024F0000B69D1E902210068FFF7CFFF20E00A68ED
:10250000052A10D00268136A146A24F001041462C8
:1025100002689469096924F0F00444EA01119161A8
:10252000006803620CE0012010BD0A698968006838
:1025300000F008F804E00A698968006800F054F8BF
:10254000002010BD10B5036A046A24F0010404627F
:10255000846924F0F00444EA021423F00A020A43D6
:102560008461026210BD000070B5046A24F00104A9
:1025700004628469056A154EB04214D0B0F1804FF0
:1025800011D0134EB0420ED0124EB0420BD0124EAC
:10259000B04208D0114EB04205D0114EB04202D028
:1025A000104EB04203D124F00304144301E044F080
:1025B00001041A0724F0F00444EA126225F00A0329
:1025C00001F00A0119438261016270BD00000140FF
:1025D0000004004000080040000C004000040140DE
:1025E000004001400018004010B5036A23F01003BA
:1025F00003628369046A23F4704343EA023224F0DD
:10260000A00343EA01118261016210BD30B5046A82
:1026100024F0100404628469056A24F4407444EAD6
:10262000022222F470444FF6FF7202EA0332224380
:10263000A02425F0A00304EA01111943826101627C
:1026400030BD2DE9FC41002401262546F70200EEAD
:10265000104A0022CDE90056B8EEC00A11461046D5
:10266000BDEEC00A10EE103A00F022F90120FEF78C
:102670006FF8641CBC42EADBBDE8FC81FEE70000A9
:10268000074A10B50523511F0648FEF733FE0448DC
:10269000193801780029FCD00021017010BD00001C
:1026A00019000020785000200907090E002804DBDB
:1026B00000F1E02080F80014704700F00F0000F1F6
:1026C000E02080F8141D704702E008C8121F08C1FE
:1026D000002AFAD170477047002001E001C1121FA3
:1026E000002AFBD170470005800C010201EB10208D
:1026F00080B270471CB5FEF72DF9FFF7DFFDFFF73D
:1027000063FAFFF7C7FAFFF7DBFAFFF7F3FAFFF711
:102710006BFB00245E4900945C4801940860084605
:10272000FDF77CFF00940022694659480194FDF7AB
:1027300054FF9FED580AB0EE401ADFED570A00F043
:102740009FF90346002211465148FDF7ABFF0021D7
:102750004F48FDF7B4FFFFF71DFBFFF7D5F9012246
:1027600011024E48FEF7E3F8002000F0F3F80120D4
:1027700000F0F0F8022000F0EDF8032000F0EAF895
:10278000042000F0E7F8464EDFF81881A6F10905AD
:10279000A6F1190705F10409FFF772FF3078B87048
:1027A00071782970B1786970F178A9703179E97020
:1027B0000D2866D2DFE800F007161C22282C303DD9
:1027C0004145525C610089F80040112189F80110EF
:1027D000222189F80210442189F80310882189F800
:1027E0000410D9E795ED000A002088ED010A32E0D7
:1027F00095ED000A012088ED020A2CE095ED000A13
:10280000022088ED030A26E095ED000A40461FE00D
:10281000FFF717FFBB2103E02348FFF737FBAA218F
:10282000484689F8001044708470C47089F80440E8
:10283000B2E71D48FFF742FBAEE71B48FDF758FD26
:10284000AAE798ED040ADFED190A404630EE200AA7
:1028500080ED040A032000F07DF89DE795ED000A65
:10286000114888ED060A98ED060AFFF785F993E707
:1028700095ED000A88ED060A8EE70B48FFF710FB7E
:102880008AE7484689F80040CDE700000074004020
:102890006450002000000000333353400004024025
:1028A0001900002030000020643000200AD7233CAB
:1028B000FEB50024DDE908658DF800408DF8044080
:1028C0008DF80840B3F5006F02DB40F2FF7402E0C0
:1028D000002B00DB9CB2C00101F01F0140EA810027
:1028E000C2F3C10108438DF80000C4F3841040EA2C
:1028F00042108DF80400A00006F0010140EA4100FA
:1029000005F001010843114D8DF808004FF4806473
:10291000002221462846FEF70AF8A6103346012277
:1029200069460B48FEF737FC3346012201A90848E7
:10293000FEF731FC3346012202A90548FEF72BFCC5
:10294000012221462846FDF7F2FFFEBD00000240AD
:10295000D050002070B5014641489FED421ADFED8E
:10296000420A434C414AA515424E052976D2DFE87A
:1029700001F003193046570090ED010A00F080F88D
:10298000FFF7B1FE9080002240212046FDF7CFFFE7
:1029900036492B460222091D3748FEF7FCFB01226F
:1029A000402114E09FED350A00F06AF8FFF79BFE26
:1029B0009080002280212046FDF7B9FF2B492B464D
:1029C0000222091D2C48FEF7E6FB01228021204649
:1029D00040E090ED030A00F053F8FFF784FE90808A
:1029E000002229462046FDF7A2FF20492B4602225D
:1029F000091D2148FEF7CFFB01222946E7E790EDAC
:102A0000040AF1EE040A30EE200AF2EE040A00F0A5
:102A100037F8FFF768FE908000224FF480540BE0F7
:102A200090ED050AF1EE040A00F02AF8FFF75BFECC
:102A3000908000224FF4006421463046FDF777FF76
:102A40000A492B460222091D0B48FEF7A4FB01226E
:102A500021463046BDE87040FDF769BF70BD0000FB
:102A60003000002000000000295C4F4000000020E2
:102A70000008024000000240D0500020CDCC8C3E27
:102A8000B4EEE00A0020F1EE10FA02DD40F6FF702D
:102A90007047B4EEC10AF1EE10FAF9D330EEC11A64
:102AA000DFED051AC1EE810A20EE800ABCEEC00AF5
:102AB00010EE100A80B27047000080450000000050
:102AC000000000000102030406070809EC2A0008C0
:102AD0000000002030000000C82600081C2B000861
:102AE00030000020B8550000D82600080000000083
:102AF00000000000000000000000000000000000D6
:102B00000000AB00CD00000000000000010000004C
:0C2B100010000000000000000024F40091
:040000050800018965
:00000001FF
